:0400000007EF00F016
:100008000F8209ED00F05CEF00F00600FACF01F076
:10001800FBCF02F0E9CF03F0EACF04F0E1CF05F01F
:10002800E2CF06F0D9CF07F0DACF08F0F3CF09F026
:10003800F4CF0AF0F6CF0BF0F7CF0CF0F8CF0DF0B5
:10004800F5CF0EF09EA202D08A1E9E920EC0F5FF3A
:100058000DC0F8FF0CC0F7FF0BC0F6FF0AC0F4FF95
:1000680009C0F3FF08C0DAFF07C0D9FF06C0E2FFE6
:1000780005C0E1FF04C0EAFF03C0E9FF02C0FBFFBF
:1000880001C0FAFF0F921100000E936E000E816EF0
:10009800D09EF28EF28C9D82CA90CA92CD88CD9A5B
:1000A800CA96CA98CA9ACA9CCA84800ECB6EFFD7D1
:0A00B8000F900F92000148EF00F0D6
:020000040020DA
:08000000FFFFFFFFFFFFFFFF00
:020000040030CA
:0E000000040E1F1EFF8181FF0FC00FE00F4096
:00000001FF
