:0400000007EF00F016
:10000800168209ED00F077EF00F00600FACF02F053
:10001800FBCF03F0E9CF04F0EACF05F0E1CF06F01B
:10002800E2CF07F0D9CF08F0DACF09F0F3CF0AF022
:10003800F4CF0BF0F6CF0CF0F7CF0DF0F8CF0EF0B1
:10004800F5CF0FF0F2A431D0150ED76EA00ED66EF4
:1000580081808182818481868188100E016E940E50
:10006800E82EFED7012EFCD700D0000E156EB40E78
:10007800156401D019D015501018D8B481901550B6
:100088001118D8B4819215501218D8B4819415500B
:100098001318D8B4819615501418D8B481980D0E39
:1000A800E82EFED7152AE3D7F2940FC0F5FF0EC04D
:1000B800F8FF0DC0F7FF0CC0F6FF0BC0F4FF0AC035
:1000C800F3FF09C0DAFF08C0D9FF07C0E2FF06C086
:1000D800E1FF05C0EAFF04C0E9FF03C0FBFF02C05F
:1000E800FAFF16921100420EF66E010EF76E000E20
:1000F800F86E00EE10F010EE05F00900F5CFEEFFF7
:10010800E550E150FAE1156A1690169200018DEF5C
:1001180000F093909392939493969398D09EF28E36
:10012800F28AD59CD59AD596D580D592D594150EB8
:0F013800D76EA00ED66ED58EFFD70F1E3C5A780D
:020000040020DA
:08000000FFFFFFFFFFFFFFFF00
:020000040030CA
:0E000000040E1F1EFF8181FF0FC00FE00F4096
:00000001FF
