:0400000007EF00F016
:100008004482D2ED01F0E2EF02F00CEC03F09390A1
:100018009392939493969398D09EF28EF28AD59C5D
:10002800D59AD596D580D592D594150ED76EA00EB3
:10003800D66ED58E2D0E396E340E3A6E3E0E3B6E50
:10004800000E98EC02F010C03CF011C03DF039C031
:100058001EF03AC01FF03BC020F03CC018F03DC075
:1000680019F0FAEC02F018C01BF019C01CF01AC005
:100078001DF058EC01F01BC02AF01CC02BF01DC06D
:100088002CF0DEEC00F02A503E6E010E98EC02F0E7
:1000980010C03CF011C03DF039C01EF03AC01FF04E
:1000A8003BC020F03CC018F03DC019F0FAEC02F05B
:1000B80018C01BF019C01CF01AC01DF058EC01F054
:1000C8001BC02AF01CC02BF01DC02CF0DEEC00F089
:1000D8002A503F6E020E98EC02F010C03CF011C09E
:1000E8003DF039C01EF03AC01FF03BC020F03CC0C4
:1000F80018F03DC019F0FAEC02F018C01BF019C056
:100108001CF01AC01DF058EC01F01BC02AF01CC0EE
:100118002BF01DC02CF0DEEC00F02A50406E030ED0
:1001280098EC02F010C03CF011C03DF039C01EF050
:100138003AC01FF03BC020F03CC018F03DC019F099
:10014800FAEC02F018C01BF019C01CF01AC01DF020
:1001580058EC01F01BC02AF01CC02BF01DC02CF07D
:10016800DEEC00F02A50416E040E98EC02F010C04C
:100178003CF011C03DF039C01EF03AC01FF03BC042
:1001880020F03CC018F03DC019F0FAEC02F018C09D
:100198001BF019C01CF01AC01DF058EC01F01BC070
:1001A8002AF01CC02BF01DC02CF0DEEC00F02A5009
:1001B800426E46D72CC02EF02F6A306A2B342E366A
:1001C80001E32F802E50386E3850D8A409D0000E85
:1001D8002A6E000E2B6E000E2C6E000E2D6E120075
:1001E800170E2E6E2AC02FF02BC030F02CC031F025
:1001F8002E28326E04D0D890313230322F32322E3F
:10020800FAD72F50336E2B8EFF0E2A16FF0E2B16A1
:10021800000E2C162A50346E2B50356E2C50366E2C
:10022800376A8E0E385E38AE16D03850800A8F0F77
:10023800D8B009D0000E2A6E000E2B6E000E2C6E60
:10024800000E2D6E1200D8903732363235323432E5
:10025800383EF9D715D0170E38640FD0000E2A6E25
:10026800000E2B6E000E2C6E000E2D6E1200D89014
:10027800343635363636373638063850D8A4F7D7B8
:100288003350D8B408D0371E361E351E346C000ED5
:1002980035223622372234C02AF035C02BF036C03A
:1002A8002CF037C02DF012001DC021F0226A236AFD
:1002B8001C34213601E322802150246E2450D8A416
:1002C80007D0000E1B6E000E1C6E000E1D6E120075
:1002D80020C021F0226A236A1F34213601E32280DC
:1002E8002150296E2950D8A407D0000E1B6E000E8D
:1002F8001C6E000E1D6E120029507B0F24261DC097
:1003080029F02050291A800E29161C8E1F8EFF0EE8
:100318001E16FF0E1F16000E2016000E256E000E6C
:10032800266E000E276E070E286E1BA006D01E50E4
:1003380025261F50262220502722D8901D321C32F5
:100348001B32D8901E361F362036282EEED7090EBF
:10035800286E1BA006D01E5025261F50262220508E
:100368002722D8901D321C321B32D89027322632D1
:100378002532282EEED725C010F026C011F027C050
:1003880012F024C013F029C014F041EC02F010C0A0
:100398001BF011C01CF012C01DF012000600FACFAD
:1003A80002F0FBCF03F0E9CF04F0EACF05F0E1CF8C
:1003B80006F0E2CF07F0D9CF08F0DACF09F0F3CF93
:1003C8000AF0F4CF0BF0F6CF0CF0F7CF0DF0F8CF22
:1003D8000EF0F5CF0FF0F2A432D0150ED76EA00EA6
:1003E800D66E81808182818481868188100E016E1B
:1003F800940EE82EFED7012EFCD700D0000E436ED7
:10040800B40E436401D01AD043503E18D8B481903A
:1004180043503F18D8B4819243504018D8B48194BF
:1004280043504118D8B4819643504218D8B48198A3
:100438000D0EE82EFED700F0432AE2D7F2940FC043
:10044800F5FF0EC0F8FF0DC0F7FF0CC0F6FF0BC09C
:10045800F4FF0AC0F3FF09C0DAFF08C0D9FF07C0DC
:10046800E2FF06C0E1FF05C0EAFF04C0E9FF03C0E0
:10047800FBFF02C0FAFF449211001350D8B405D014
:10048800105011101210D8A40CD0000E106E000ECF
:10049800116E000E126E1200132AD8901232113209
:1004A8001032000E1014156E000E1114166EFE0E8A
:1004B8001214176E155016101710D8B40CD0ECD7AC
:1004C800132A010E1026000E1122000E1222D890B7
:1004D800123211321032000E1014156E000E111463
:1004E800166EFF0E1214176E155016101710D8B48A
:1004F80006D0E6D71306D89010361136123611BE3C
:1005080003D0020E1360F6D713A0119ED8901332B1
:10051800135012121450D8A4128E10C010F011C02B
:1005280011F012C012F01200146E170E156E000EA4
:10053800166E010E1524126E000E1620136E9E9C68
:1005480016D0C29401D0C284C29602D0C29404D0FC
:10055800C298C29A1DD0C284C286FAD7C294C296E3
:10056800C288F7D7000E116E000E106E12001450DC
:10057800000AD8B4E6D7010AD8B4E5D7030AD8B434
:10058800E5D7010AD8B4E7D7070AD8B4E7D7EAD736
:10059800C2B2FED7C282C2B2FED715C0D9FF16C0FA
:1005A800DAFFC3CFDFFF12C0D9FF13C0DAFFC4CF11
:1005B800DFFF17C010F018C011F01200320EF66EEF
:1005C800060EF76E000EF86E00EE3EF010EE05F027
:1005D8000900F5CFEEFFE550E150FAE1436A449097
:1005E8004492000EF86E000109EF00F018C010F0F8
:1005F80019C011F0126A8E0E136E000E146E41ECC3
:1006080002F010C018F011C019F012C01AF0120050
:10061800C090C082C084C086C088C08AC08EC19085
:0F062800C182C194C186C28012000F1E3C5A7855
:020000040020DA
:08000000FFFFFFFFFFFFFFFF00
:020000040030CA
:0E000000040E1F1EFF8181FF0FC00FE00F4096
:00000001FF
