:040000000BEF00F012
:100008004682FACF0CF0FBCF0DF0C7ED0AF035EFC2
:020018000FF0E7
:1008000000010000000A00000064000000E803008E
:100810000010270000A086010040420F008096983B
:100820000000E1F50500CA9A3B256C752E25362E91
:10083000366C750000009590959295949F80F28E8D
:10084000F28CF288F18CF086F18A9D80D59CD59A45
:10085000D596D580D592D594000E0001936F000EE9
:10086000926F000E0001916F000E906F45904592BF
:10087000000E0101016F010E006F000E0101656F96
:100880001E0E646F000E0201016F1E0E006F000E3F
:100890000101036F070E026F000E0101676F7D0EED
:1008A000666F000E0201036F7D0E026F000E0101E4
:1008B000056F080E046F000E0101076F060E066F2C
:1008C000000E01016B6F780E6A6F000E0201076F58
:1008D000780E066F000E0101096F040E086F000EFE
:1008E00001016D6F230E6C6F000E0201096F230E64
:1008F000086F000E01010B6F060E0A6F000E01015A
:100900006F6F780E6E6F000E02010B6F780E0A6F1C
:10091000000E0001B06F060EAF6F8DEC10F09BEC77
:1009200010F09398939A939C939E95929594000EB1
:10093000816E8188819A818C819E000E0001956F65
:10094000000E946FCD8ECD88CD9ACD96CD92CD8070
:10095000CF68000ECE6E800E286E250E296E000E1A
:100960002A6E000E2B6EF9EC0BF056D382A002D04B
:10097000010E01D0000E00080001876F010E00017A
:100980008727825000018719FE0B8719826E0001AC
:10099000964B972BE80E000196190CE1030E00010F
:1009A0009719D8A407D0A9EC10F0000E0001976F9A
:1009B000000E966F00019805D8A432D08BC022F0AB
:1009C0008CC023F08DC024F0C70E256EBA0E266EA3
:1009D0003B0E276E1EEC0DF022C0ACF023C0ADF034
:1009E00024C0AEF0000E0001986FACC078F0ADC02E
:1009F00079F0AEC07AF0AA0E00017B6F000E000104
:100A00007C6F8FEC0CF078C08EF079C08FF08EC0C8
:100A10001BF08FC01CF0F5EC0FF0200EAFEC10F0C7
:100A2000ACC01AF0ADC01BF0AEC01CF0000E1D6EC5
:100A3000200E1E6E410E1F6EACEC0EF0D8B016D01C
:100A4000030E0001976FE80E966F000E1B6E000EEE
:100A50001A6E22EC10F0000E1B6E000E1A6E35ECB2
:100A600010F0000E426E2E0E416E94D7000E426EB4
:100A7000170E416ED89000019435D96E000195355E
:100A8000DA6E000ED926010EDA22DE04DE10D8A4BA
:100A900051D0D89000019435D96E00019535DA6EA9
:100AA000640ED926010EDA22DE500001925DDE507E
:100AB00000019359D8A008D0000E1B6E000E1A6ECC
:100AC00035EC10F045800BD0020E1B6EBC0E1A6E7A
:100AD00035EC10F0010E1A6E010E48EC10F0D890B3
:100AE00000019435D96E00019535DA6E000ED926D5
:100AF000020EDA22DE500001905DDE5000019159B5
:100B0000D8A008D0000E1B6E000E1A6E22EC10F05A
:100B10004582A5D0020E1B6EBC0E1A6E22EC10F0A0
:100B2000010E1A6E010E48EC10F099D00001944BA2
:100B3000952B72D2D89000019435D96E000195356D
:100B4000DA6E000ED926010EDA22080EDE18DE104B
:100B5000D8A42AD0000E1B6E000E1A6E35EC10F0D1
:100B6000000E1B6E000E1A6E22EC10F08188818A36
:100B7000818C818E000E00018A6F000E896F00014A
:100B80008A5172E1320E0001895DD8B03AD29C0ED2
:100B90000001876FD70EE82EFED7872FFCD700F015
:100BA0000001894B8A2BEBD7D89000019435D96E80
:100BB00000019535DA6E000ED926010EDA22070EF5
:100BC000DE18DE10D8A451D0D89000019435D96E2B
:100BD00000019535DA6E640ED926010EDA22DE5058
:100BE0000001925DDE5000019359D8A008D0000E9C
:100BF0001B6E000E1A6E35EC10F045800BD0030E04
:100C00001B6E840E1A6E35EC10F0010E1A6E010E7A
:100C100048EC10F0D89000019435D96E000195355C
:100C2000DA6E000ED926020EDA22DE500001905D47
:100C3000DE5000019159D8A007D0000E1B6E000EA7
:100C40001A6E22EC10F064D7030E1B6E840E1A6E1F
:100C500022EC10F0010E1A6E010E48EC10F045B0B7
:100C600045A2DAD145904592CCD1D8900001943577
:100C7000D96E00019535DA6E000ED926010EDA2202
:100C8000030EDE18DE10D8A44CD0D89000019435A5
:100C9000D96E00019535DA6E640ED926010EDA227E
:100CA000DE500001925DDE5000019359D8A008D0BB
:100CB000000E1B6E000E1A6E35EC10F045800BD046
:100CC000030E1B6E200E1A6E35EC10F0010E1A6E1C
:100CD000010E48EC10F0D89000019435D96E000157
:100CE0009535DA6E000ED926020EDA22DE500001AA
:100CF000905DDE5000019159D8A007D0000E1B6E08
:100D0000000E1A6E22EC10F003D7020E1B6E000EBE
:100D10001A6E22EC10F0010E1A6E010E48EC10F063
:100D20009ED7D89000019435D96E00019535DA6EC2
:100D3000000ED926010EDA22020EDE18DE10D8A42B
:100D40004CD0D89000019435D96E00019535DA6EFB
:100D5000640ED926010EDA22DE500001925DDE50CB
:100D600000019359D8A008D0000E1B6E000E1A6E19
:100D700035EC10F045800BD0020E1B6E000E1A6E83
:100D800035EC10F0010E1A6E010E48EC10F0D89000
:100D900000019435D96E00019535DA6E000ED92622
:100DA000020EDA22DE500001905DDE500001915902
:100DB000D8A007D0000E1B6E000E1A6E22EC10F0A9
:100DC000A7D6030E1B6E200E1A6E22EC10F0010E39
:100DD0001A6E010E48EC10F042D7D89000019435FD
:100DE000D96E00019535DA6E000ED926010EDA2291
:100DF000050EDE18DE10D8A44CD0D8900001943532
:100E0000D96E00019535DA6E640ED926010EDA220C
:100E1000DE500001925DDE5000019359D8A008D049
:100E2000000E1B6E000E1A6E35EC10F045800BD0D4
:100E3000020E1B6E000E1A6E35EC10F0010E1A6ECB
:100E4000000E48EC10F0D89000019435D96E0001E6
:100E50009535DA6E000ED926020EDA22DE50000138
:100E6000905DDE5000019159D8A007D0000E1B6E96
:100E7000000E1A6E22EC10F04BD6020E1B6E000E06
:100E80001A6E22EC10F0000E1A6E000E48EC10F0F4
:100E9000E6D6D89000019435D96E00019535DA6E0A
:100EA000000ED926010EDA22040EDE18DE10D8A4B8
:100EB0004CD0D89000019435D96E00019535DA6E8A
:100EC000640ED926010EDA22DE500001925DDE505A
:100ED00000019359D8A008D0000E1B6E000E1A6EA8
:100EE00035EC10F045800BD0020E1B6EBC0E1A6E56
:100EF00035EC10F0010E1A6E000E48EC10F0D89090
:100F000000019435D96E00019535DA6E000ED926B0
:100F1000020EDA22DE500001905DDE500001915990
:100F2000D8A007D0000E1B6E000E1A6E22EC10F037
:100F3000EFD5020E1B6EBC0E1A6E22EC10F0010EE5
:100F40001A6E000E48EC10F08AD6D8900001943545
:100F5000D96E00019535DA6E000ED926010EDA221F
:100F6000060EDE18DE10D8A457D0D89000019435B4
:100F7000D96E00019535DA6E640ED926010EDA229B
:100F8000DE500001925DDE5000019359D8A008D0D8
:100F9000000E1B6E000E1A6E35EC10F045800BD063
:100FA000020E1B6EBC0E1A6E35EC10F0000E1A6E9F
:100FB000000E48EC10F0D89000019435D96E000175
:100FC0009535DA6E000ED926020EDA22DE500001C7
:100FD000905DDE5000019159D8A007D0000E1B6E25
:100FE000000E1A6E22EC10F093D5020E1B6EBC0E92
:100FF0001A6E22EC10F0000E1A6E000E48EC10F083
:101000002ED6000E0001936F000E926F000E0001AD
:10101000916F000E906F8AD50001AF510001945D71
:101020000001B05100019559D8B0F6D79FD4640E95
:1010300000016D6F000E00016E6FBED1250E000124
:101040007719D8B40AD060C0D9FF61C0DAFF77C081
:10105000DFFF0001604B612BAFD1000E0001746F08
:10106000000E736F000E00016C6F62C0F6FF63C06C
:10107000F7FF0800F5507EEC10F0D8A036D0000E37
:101080000001746F000E736F73C01AF074C01BF010
:10109000000E1D6E0A0E1C6E0FEC10F01AC073F0DD
:1010A0001BC074F0D00E306EFF0E316E62C0F6FFC2
:1010B00063C0F7FF0800F550326E336A30503226B5
:1010C0003150332232500001732733500001742312
:1010D0000001624B632B62C0F6FF63C0F7FF08009C
:1010E000F5507EEC10F0D8B0CFD762C0F6FF63C0E9
:1010F000F7FF0800F5502E0AD8A432D00001624B49
:10110000632B000E0001766F000E756F1ED075C048
:101110001AF076C01BF0000E1D6E0A0E1C6E0FEC4E
:1011200010F062C0F6FF63C0F7FF0800F5501A2602
:10113000000E1B22D00E1A240001756FFF0E1B201B
:101140000001766F0001624B632B62C0F6FF63C043
:10115000F7FF0800F5507EEC10F0D8A00ED0D7D7DE
:10116000000E0001766F000E756F07D000016C89CC
:1011700004D0C00E00016C1316D062C0F6FF63C02D
:10118000F7FF0001624B632B0800F5CF77F00001F9
:101190007751000AD8B41ED16C0AD8B4E7D7190A1F
:1011A000D8B4E7D709D100016CA90ED06DC0D9FF22
:1011B0006EC0DAFFDECF6FF0DECF70F0DECF71F001
:1011C000DECF72F0040E10D06DC0D9FF6EC0DAFF12
:1011D000DECF30F0DDCF31F030C06FF031C070F0D5
:1011E0000001716B726B020E00016D27000E6E2301
:1011F0000001755100017611D8A40DD000016F5186
:10120000000170110001711100017211D8A403D006
:101210000001754B762B010E0001776F0A0E00015D
:101220007719D8B41ED000017751040D010EF324B4
:10123000F66E080EF420F76E0900F55000016F5DA0
:101240000900F550000170590900F550000171596D
:101250000900F55000017259D8A003D00001772B86
:10126000DDD7800E000177BF7F0E306E0001755113
:101270000001775D00017651800A3058D8B003D064
:1012800075C077F016D000017651800A306E0001EB
:1012900077510001755D800E000177BF7F0E3058D9
:1012A000D8B007D0000177510001756F766B75BF1C
:1012B0007607800E000177BF7F0E306E00017351FC
:1012C0000001775D00017451800A3058D8B00BD00E
:1012D000000177510001735F000E000177BFFF0E20
:1012E0000001745B05D0000E0001746F000E736F77
:1012F0000001735100017411D8B453D060C0D9FFFC
:1013000061C0DAFF200EDF6E0001604B612B00012F
:101310007307D8A07407ECD775C030F076C031F0F1
:10132000D89030363136D89030363136010E3024F0
:10133000F66E080E3120F76E0900F5CF1EF0090099
:10134000F5CF1FF00900F5CF20F00A00F5CF21F00E
:101350006FC01AF070C01BF071C01CF072C01DF09D
:10136000F4EC0EF01AC027F01BC028F01CC029F0C6
:101370001DC02AF00A0E2B6E000E2C6E000E2D6E74
:10138000000E2E6E74EC0FF02750300F0001776FB7
:1013900060C0D9FF61C0DAFF77C0DFFF0001604B9A
:1013A000612B00017507D8A0760700017529B4E10B
:1013B00000017629D8A4B0D762C0F6FF63C0F7FF5A
:1013C0000001624B632B0800F5CF77F000017751E5
:1013D000D8A434D660C0D9FF61C0DAFF000EDF6E3A
:1013E000120024C028F0296A2A6A2334283601E32F
:1013F000298028502D6E27C028F0296A2A6A2634B1
:10140000283601E3298028502C6E2D50D8B40BD0FB
:101410002C502D5CD8B00ED02D5000082C24286EF6
:10142000180E286407D025C022F026C023F027C05C
:1014300024F012002C50D8B40BD02D502C5CD8B016
:101440000ED02C5000082D24286E180E286407D0CA
:1014500022C022F023C023F024C024F01200060E84
:101460002B6E24BE2B8E27BE2B8C238EFF0E2216B6
:10147000FF0E2316000E2416268EFF0E2516FF0ED5
:101480002616000E27162C502D5CD8B01BD0D890F5
:101490002536263627362C062D502C18D8B40DD0DC
:1014A0002B062BC028F0070E2816D8B406D0EFD78D
:1014B000D8902432233222322D2A2C502D18D8B421
:1014C0001FD0F6D72D502C5CD8B01AD0D890223629
:1014D000233624362D062D502C18D8B40DD02B06CB
:1014E0002BC028F0070E2816D8B406D0EFD7D89016
:1014F0002732263225322C2A2C502D18D8A4F7D783
:101500002BAE0CD0FF0E221AFF0E231AFF0E241A48
:10151000010E2226000E2322000E24222BAC0CD01A
:10152000FF0E251AFF0E261AFF0E271A010E25267A
:10153000000E2622000E2722000E2B6E225025269A
:10154000235026222450272227AE0ED0FF0E251A24
:10155000FF0E261AFF0E271A010E2526000E262240
:10156000000E2722010E2B6E25C01AF026C01BF09C
:1015700027C01CF02DC01DF02BC01EF0FEEC0DF09E
:101580001AC022F01BC023F01CC024F01200060079
:10159000E9CF0EF0EACF0FF0E1CF10F0E2CF11F07B
:1015A000D9CF12F0DACF13F0F3CF14F0F4CF15F057
:1015B000F6CF16F0F7CF17F0F8CF18F0F5CF19F0F7
:1015C0009EA03BD0CF68000ECE6E364A372A384AEE
:1015D000392A3A4A3B2A3C4A3D2A3F50381812E100
:1015E00040503918D8A40ED083828384000E396EFF
:1015F000000E386E000E3B6E000E3A6E000E3D6E11
:10160000000E3C6E41503A1804E142503B18D8B4E9
:10161000839243503C1804E144503D18D8B483945D
:10162000EB0E361809E15B0E3718D8A405D03E2A18
:101630005A0E3E18D8B4FFD79E90F2A204D00001F3
:10164000924B932BF292F0A004D00001904B912B7F
:10165000F090F0A219D0F1A806D0000ED76E000EBF
:10166000D66EF19810D0D6CF09F0D7CF0AF06CEC37
:1016700010F009C08BF00AC08CF00BC08DF0F1881F
:10168000010E0001986FF09219C0F5FF18C0F8FF25
:1016900017C0F7FF16C0F6FF15C0F4FF14C0F3FF24
:1016A00013C0DAFF12C0D9FF11C0E2FF10C0E1FF82
:1016B0000FC0EAFF0EC0E9FF0DC0FBFF0CC0FAFF30
:1016C0004692110033C060F00001616B626B3234EE
:1016D0000001603701E361810001605100016A6F20
:1016E00000016A51D8A409D0000E316E000E326E8E
:1016F000000E336E000E346E1200170E0001606F84
:1017000031C061F032C062F033C063F00001602983
:101710000001646F05D00001D890633362336133F8
:101720000001642FF8D7000161510001656F328E0E
:10173000FF0E3116FF0E3216000E33163150000127
:10174000666F32500001676F33500001686F00010F
:10175000696B8E0E00016A5F00016AAF19D000014B
:101760006A51800A8F0FD8B009D0000E316E000E7A
:10177000326E000E336E000E346E12000001D890EF
:10178000693368336733663300016A3FF7D71AD08D
:10179000170E00016A6511D0000E316E000E326E18
:1017A000000E336E000E346E12000001D8906637C2
:1017B00067376837693700016A0700016A5100011D
:1017C000D8A4F3D7000165510001D8B409D00001B5
:1017D000691F681F671F666D000E672368236923F2
:1017E00066C031F067C032F068C033F069C034F0D1
:1017F000120028C02CF029C02DF02AC02EF02BC0DA
:101800002FF0060ED8902C362D362E362F36E82E99
:10181000F9D72C1E2D1E2E1E2F1E2C2A000E2D2217
:101820002E222F22000E2C241A6E6C0E2D201B6EE1
:10183000DC0E2E201C6E020E2F201D6E28C030F0F4
:1018400029C031F02AC032F02BC033F0060ED890F8
:101850003036313632363336E82EF9D730C01EF006
:1018600031C01FF032C020F033C021F098EC0DF0F1
:101870001AC034F01BC035F03504D8A044D028C0BD
:101880002CF029C02DF02AC02EF02BC02FF0040E12
:10189000D8902C362D362E362F36E82EF9D72C1E22
:1018A0002D1E2E1E2F1E2C2A000E2D222E222F2200
:1018B000000E2C241A6E6C0E2D201B6EDC0E2E20BA
:1018C0001C6E020E2F201D6E28C030F029C031F092
:1018D0002AC032F02BC033F0040ED89030363136A7
:1018E00032363336E82EF9D730C01EF031C01FF043
:1018F00032C020F033C021F098EC0DF01AC034F063
:101900001BC035F0AC843504D8B0120034C0AFFF32
:10191000AC98AB8E948E948CAB88AC8A1200990EE6
:101920000001856F000E0001866F00017AAF17D0AD
:1019300085C0D9FF86C0DAFF2D0EDF6E0001854B12
:10194000862B78C01AF079C01BF07AC01CF05AECD4
:1019500010F01AC078F01BC079F01CC07AF078C083
:1019600031F079C032F07AC033F062EC0BF031C064
:1019700081F032C082F033C083F034C084F078C08C
:101980002EF079C02FF07AC030F081C022F082C0F2
:1019900023F083C024F084C025F0A7EC0FF022C010
:1019A00031F023C032F024C033F0D5EC0FF02EC05C
:1019B00078F02FC079F030C07AF0240E256E740EC6
:1019C000266E490E276E78C022F079C023F07AC0C7
:1019D00024F01EEC0DF022C031F023C032F024C000
:1019E00033F062EC0BF031C07DF032C07EF033C0DA
:1019F0007FF034C080F085C060F086C061F0290EB1
:101A00000001626F080E0001636F81C064F082C044
:101A100065F083C066F084C067F07DC068F07EC06A
:101A200069F07FC06AF080C06BF017EC08F0990E87
:101A30000001786F000E0001796F120024C028F0B9
:101A4000296A2A6A2334283601E3298028502B6E1C
:101A50002B50D8A407D0000E226E000E236E000E6D
:101A6000246E120027C028F0296A2A6A26342836F4
:101A700001E329802850306E3050D8A407D0000EE2
:101A8000226E000E236E000E246E120030507B0F6B
:101A90002B2624C030F02750301A800E3016238EAB
:101AA000268EFF0E2516FF0E2616000E2716000E98
:101AB0002C6E000E2D6E000E2E6E070E2F6E22A0C5
:101AC00006D025502C2626502D2227502E22D89085
:101AD000243223322232D8902536263627362F2E2E
:101AE000EED7090E2F6E22A006D025502C262650A8
:101AF0002D2227502E22D890243223322232D89001
:101B00002E322D322C322F2EEED72CC01AF02DC0B3
:101B10001BF02EC01CF02BC01DF030C01EF0FEECE0
:101B20000DF01AC022F01BC023F01CC024F01200DC
:101B3000000E236E21AE0AD0211E201E1F1E1E6C19
:101B4000000E1F2220222122010E236E1DAE0AD07C
:101B50001D1E1C1E1B1E1A6C000E1B221C221D2289
:101B6000010E231A000E246E000E256E000E266E46
:101B7000000E276E1E501F1020102110D8B42AD03E
:101B8000010E226E06D0D8901E361F362036213622
:101B9000222A21AEF8D7D890243625362636273685
:101BA0001E501A5C1F501B5820501C5821501D58A5
:101BB000D8A009D01E501A5E1F501B5A20501C5A24
:101BC00021501D5A2480D890213220321F321E32DB
:101BD000222EE1D72350D8B408D0271E261E251E5A
:101BE000246C000E25222622272224C01AF025C0AC
:101BF0001BF026C01CF027C01DF012001D50D8B4E9
:101C000005D01A501B101C10D8A40CD0000E1A6E50
:101C1000000E1B6E000E1C6E12001D2AD8901C3286
:101C20001B321A32000E1A141F6E000E1B14206E87
:101C3000FE0E1C14216E1F5020102110D8B40CD0A1
:101C4000ECD71D2A010E1A26000E1B22000E1C22A4
:101C5000D8901C321B321A32000E1A141F6E000E5E
:101C60001B14206EFF0E1C14216E1F50201021101B
:101C7000D8B406D0E6D71D06D8901A361B361C36C7
:101C80001BBE03D0020E1D60F6D71DA01B9ED89070
:101C90001D321D501C121E50D8A41C8E1AC01AF0E2
:101CA0001BC01BF01CC01CF012000450D8B405D09F
:101CB000015002100310D8A40CD0000E016E000ECB
:101CC000026E000E036E1200042AD8900332023214
:101CD0000132000E0114066E000E0214076EFE0E95
:101CE0000314086E065007100810D8B40CD0ECD7B7
:101CF000042A010E0126000E0222000E0322D890B3
:101D0000033202320132000E0114066E000E02147C
:101D1000076EFF0E0314086E065007100810D8B4A3
:101D200006D0E6D70406D89001360236033602BE46
:101D300003D0020E0460F6D704A0029ED8900432AD
:101D4000045003120550D8A4038E01C001F002C054
:101D500002F003C003F012001CAE16D01AC020F02F
:101D60001BC021F01CC022F0201E211E221E202A92
:101D7000000E21222222000E20241A6E000E2120A5
:101D80001B6E800E22201C6E1FAE16D01DC020F0D0
:101D90001EC021F01FC022F0201E211E221E202A5C
:101DA000000E21222222000E20241D6E000E212072
:101DB0001E6E800E22201F6E000E1A1A000E1B1AB5
:101DC000800E1C1A000E1D1A000E1E1A800E1F1AFD
:101DD0001D501A5C1E501B581F501C58D8B002D002
:101DE000D8901200D8801200000E226E000E236ED2
:101DF000000E246E000E256E1E501F1020102110A4
:101E0000D8B42AD0010E266E06D0D8901E361F36C2
:101E100020362136262A21AEF8D7D890223623360E
:101E2000243625361E501A5C1F501B5820501C5853
:101E300021501D58D8A009D01E501A5E1F501B5AA1
:101E400020501C5A21501D5A2280D8902132203215
:101E50001F321E32262EE1D722C01AF023C01BF0FB
:101E600024C01CF025C01DF0120002EE00F0640E2C
:101E7000EE6AE806FDE101EE00F0C80EEE6AE80643
:101E8000FDE100EE8BF0210EEE6AE806FDE1456A09
:101E900000EE36F0090EEE6AE806FDE1700EF66E11
:101EA000210EF76E000EF86E0900F5CFACF00900B8
:101EB000F5CFADF00900F5CFAEF06A0EF66E210E4B
:101EC000F76E000EF86E00EE3FF010EE06F009001F
:101ED000F5CFEEFFE550E150FAE146904692000E54
:101EE000F86E00011BEF04F02B502C102D102E105B
:101EF000D8B424D0010E2F6E06D0D8902B362C36B5
:101F00002D362E362F2A2EAEF8D72B50275C2C508C
:101F100028582D5029582E502A58D8A008D02B5078
:101F2000275E2C50285A2D50295A2E502A5AD890C4
:101F30002E322D322C322B322F2EE7D727C027F00E
:101F400028C028F029C029F02AC02AF012008E0EDD
:101F50002A6E06D0D89025322432233222322A2A01
:101F6000000E2214266E000E2314276E000E241479
:101F7000286EFF0E2514296E2650271028102910D0
:101F8000D8A4E8D722C01AF023C01BF024C01CF04C
:101F90002AC01DF0000E1E6EFEEC0DF01AC022F0DD
:101FA0001BC023F01CC024F012003150321033103B
:101FB000D8B406D0000E311A000E321A800E331A31
:101FC0002EC022F02FC023F030C024F031C025F005
:101FD00032C026F033C027F0F1EC09F022C02EF019
:101FE00023C02FF024C030F01200000E1E6E000E31
:101FF0001D6E0BD01D501B24D96E1E501C20DA6E96
:10200000DF50AFEC10F01D4A1E2A1D501B24D96E64
:102010001E501C20DA6EDF50D8B41200EBD71A50D5
:102020001C02F3CF1EF0F4CF1FF01A501D02F35024
:102030001F261B501C02F3501F261EC01AF01FC083
:102040001BF012001AC01CF01BC01DF0D8901D32EE
:102050001C32D8901D321C321C50BE6ECF0EBD16E5
:102060001A38F00B300BBD1212001AC01CF01BC046
:102070001DF0D8901D321C32D8901D321C321C50DD
:10208000BB6ECF0EBA161A38F00B300BBA12120014
:102090001B6E1B04D8A403D08198818A02D081884A
:1020A000819A1A04D8A403D0819C818E1200818C5D
:1020B000819E12001A501B101C10D8B406D0000EBE
:1020C0001A1A000E1B1A800E1C1A1AC01AF01BC016
:1020D0001BF01CC01CF0120009C001F00AC002F085
:1020E000036A8E0E046E000E056E55EC0EF001C0F4
:1020F00009F002C00AF003C00BF012001C6E000EC3
:102100001B6E3A0E1C6005D02F0E1C6402D0010E0F
:102110001B6E1BC01AF01A30120094920C0EBA6E8D
:10212000CB68010ECA6E000E1B6E000E1A6E22ECFA
:1021300010F0CA84120094940C0EBD6ECB68010E90
:10214000CA6E000E1B6E000E1A6E35EC10F0CA84BB
:1021500012008380280EE82EFED7839012001A6E9C
:10216000ACA2FED71AC0ADFF1200D60117001700AF
:0421700000C8420061
:020000040020DA
:08000000FFFFFFFFFFFFFFFF00
:020000040030CA
:0E000000040E1F1EFF8181FF0FC00FE00F4096
:00000001FF
